:020000040800F2
:10000000D80700209D01000817210008B719000833
:1000100015210008CD020008A928000800000000F2
:100020000000000000000000000000001B2100088C
:100030002103000800000000192100081D2100080C
:10004000B7010008B7010008B7010008B7010008B0
:10005000B7010008B701000823030008B701000832
:10006000B7010008B7010008B7010008B701000890
:10007000B7010008B7010008B7010008B701000880
:10008000B7010008B7010008B7010008B701000870
:10009000B7010008B7010008B7010008B701000860
:1000A000B7010008B7010008B7010008B701000850
:1000B000B7010008B7010008B7010008B701000840
:1000C000B7010008B7010008B7010008B701000830
:1000D000B7010008B7010008B7010008B701000820
:1000E000B7010008B7010008B7010008B701000810
:1000F000B7010008B7010008B7010008B701000800
:10010000B7010008B7010008B7010008B7010008EF
:10011000B7010008B7010008B7010008B7010008DF
:10012000B7010008B7010008B7010008B7010008CF
:10013000B7010008B7010008B7010008B7010008BF
:10014000B7010008B7010008B7010008B7010008AF
:10015000B7010008B7010008B7010008B70100089F
:10016000B7010008B7010008B7010008B70100088F
:10017000B7010008B7010008B7010008000000003F
:10018000B7010008B7010008DFF80CD000F08CF8C8
:10019000004800471D2A0008D8070020064880476D
:1001A00006480047FEE7FEE7FEE7FEE7FEE7FEE75C
:1001B000FEE7FEE7FEE7FEE7A92100088901000847
:1001C0002DE9F05F0546002092469B46884606468C
:1001D000814640241BE0284641464746224600F01F
:1001E00053F853465A46C01A914110D31146184647
:1001F000224600F03AF82D1A67EB01084F462246D6
:100200000120002100F031F817EB00094E41201EBB
:10021000A4F10104DFDC484631462A464346BDE8E6
:10022000F09F40EA01039B0703D009E008C9121FB1
:1002300008C0042AFAD203E011F8013B00F8013BA0
:10024000521EF9D27047D2B201E000F8012B491ECC
:10025000FBD270470022F6E710B513460A46044663
:100260001946FFF7F0FF204610BD202A04DB203A94
:1002700000FA02F1002070479140C2F1200320FAF9
:1002800003F3194390407047202A04DB203A21FAF7
:1002900002F00021704721FA02F3D040C2F120029F
:1002A0009140084319467047064C074D06E0E06848
:1002B00040F0010394E8070098471034AC42F6D3AD
:1002C000FFF766FFD42C0008F42C0008FEE70000BE
:1002D00010B502F0D3FC00220221054800F0A3FA79
:1002E00044F2506000F006F8BDE8104002F0B8BCDF
:1002F0000000024031B5084D6C6800F011FE07495E
:10030000B0FBF1F000994843009068680099001B29
:100310008842FAD338BD0000001000E040420F00D0
:100320007047012000F096B97047000070B5044690
:1003300000F07EFA0546601C02D0044800780444B0
:1003400000F076FA401BA042FAD370BD3C000020BA
:100350002DE9F05FB848B94AB94B81681415B94D19
:100360005614B94FDFF8E4B24FF4007C002951D0A5
:1003700001297DD0022980467BD04FF00009032956
:1003800078D0042944D1D8F80C00106001226146CD
:100390009A46184600F047FA00222146504600F0DF
:1003A00042FA00222146284600F03DFA0122314659
:1003B000284600F038FAD8F80C00786301220821AA
:1003C000284600F030FA00220421284600F02BFADB
:1003D00001224021584600F026FA002231469C486E
:1003E00000F021FA00223146504600F01CFA0022AB
:1003F0002101504600F017FA0122D103504600F0C7
:1004000012FA0022A100504600F00DFAC8F8089038
:10041000BDE8F09F8046C0681060002261469946A2
:10042000184600F000FA01222146484600F0FBF988
:1004300001222146284600F0F6F9002231462846DE
:1004400000F0F1F9D8F80C00786300220821284662
:1004500000F0E9F901220421284600F0E4F9002225
:100460004021584600F0DFF901223146784802E089
:100470000AE056E097E000F0D6F9012231464846FE
:1004800000F0D1F9002281E080460069106001226D
:1004900061469946184600F0C6F9002221464846B2
:1004A00000F0C1F901222146284600F0BCF90022E3
:1004B0003146284600F0B7F9D8F8100078630122D9
:1004C0000821284600F0AFF900220421284600F058
:1004D000AAF900224021584600F0A5F90122314630
:1004E0005B4800F0A0F900223146484600F09BF935
:1004F00000224FF48041484600F095F900224FF465
:100500000041484600F08FF95FF001024FF480513E
:10051000484600F088F9D8F80800401CC8F80800E0
:1005200076E7D8F810001060002261469946184618
:1005300000F079F901222146484600F074F90022C2
:100540002146284600F06FF901223146284600F086
:100550006AF9D8F81000786300220821284600F0D4
:1005600062F901220421284600F05DF901224021B0
:10057000584600F058F900223146354800F053F94A
:1005800000223146484600F04EF901224FF48041E6
:10059000484600F048F900224FF40041484600F078
:1005A00042F90022B2E7C2F80090002261469A4662
:1005B000184600F038F900222146504600F033F981
:1005C00000222146284600F02EF900223146284616
:1005D00000F029F9C7F8349000220821284600F0DD
:1005E00022F900220421284600F01DF900224021B2
:1005F000584600F018F900223146154800F013F96A
:1006000000223146504600F00EF901229103504677
:1006100000F009F900224FF40041504600F003F9C0
:1006200001221103504600F0FEF8D8F80810491CCA
:10063000C8F80810ECE60000140000203418004050
:10064000000C024000000240004001400010024047
:1006500000080240044910B50A68024202D008604E
:10066000FFF776FE10BD0000143C01402DE9F84F65
:10067000DFF87CB100224FF001084FF0030A4FF081
:100680000F090BF1040E00BF0B6808FA02F42340B7
:10069000A3426ED14D68022D01D0122D0ED1D50886
:1006A00000EB850CDCF820505607F70E09FA07F628
:1006B000B5430E69BE402E43CCF820600668550055
:1006C0000F790AFA05FC07F0030726EA0C06AF408B
:1006D000374307604E68012E05D0022E03D0112E3D
:1006E00001D0122E0ED18668CF6826EA0C06AF40E4
:1006F000374387604668A6430C79C4F300149440DE
:1007000034434460C6688C6826EA0C06AC40344327
:10071000C4604C68E40065D5364C256845F48045D6
:100720002560246822F0030504F480440094324CD0
:100730002E19D6F8084895072F0F09FA07F5AC438C
:100740002E4DA84201D1002524E02D4DA84201D113
:1007500001251FE02B4DA84201D102251AE02A4DA8
:10076000A84201D1032515E0284DA84202D1042555
:1007700010E037E0264DA84201D105250AE0254DBD
:10078000A84201D1062505E0234DA84201D1072545
:1007900000E00825BD402543C6F80858DBF80040B6
:1007A0005D464E689C43F60300D51C432C60DEF882
:1007B000004075464E689C43B60300D51C432C6030
:1007C0000B4D08352C684E689C43F60200D51C433F
:1007D0002C60074D0C352C684E689C43B60200D542
:1007E0001C432C60521C102AFFF44EAFBDE8F88F5A
:1007F000003C01404438024000300140000002400B
:100800000004024000080240000C024000100240B8
:100810000014024000180240001C02400069084019
:1008200000D0012070470AB1816170470904FBE7DD
:1008300001488068704700003C00002070B504004B
:100840001BD094F83D00002520B984F83C50204688
:1008500000F0F0F9242084F83D002068016821F0C0
:100860000101016000F062FB4D4A6168914201D8CC
:100870004C4900E04C49884201D2012070BD4B49EF
:100880002368B0FBF1F15E6826F03F060E435E6020
:100890006368934206D94FF4967359434FF47A73C1
:1008A000B1FBF3F12368491C1E6A26F03F06314371
:1008B00019626168914210D84900401EB0FBF1F204
:1008C000521CC2F30B02042A01D2042022E0B0FB26
:1008D000F1F0401CC0F30B001CE0A368F3B301EB84
:1008E000C10202EB0116421EB2FBF6F2521C42F4A8
:1008F0008042120549D093B301EBC10202EB011112
:10090000401EB0FBF1F0401CC0F30B0040F48040EF
:1009100040F400402168CA694CF6FF739A431043C3
:10092000C861D4E90701084321680A6822F0C002BF
:1009300010430860D4E9030101432068826848F24B
:10094000FF339A4311438160D4E9050108432168CC
:10095000CA6822F0FF021043C86001E00EE016E012
:100960002068016841F0010101602564202084F8BD
:100970003D00256384F83E50002070BD01EB410628
:10098000421EB2FBF6F2521CB3E70120C2E701EBB4
:100990004101401EB0FBF1F0401CC0F30B00B7E773
:1009A000A086010080841E0000093D0040420F0027
:1009B0002DE9FF4F81B089460446FFF739FF054610
:1009C00094F83D004FF0010820287AD11923012224
:1009D0004B492046009501F071F8002871D194F838
:1009E0003C0001286DD0012084F83C00206801689B
:1009F000C90703D1016841F0010101602068016865
:100A000021F400610160242084F83D000026266462
:100A10003C48E0624FF0011B20272068016841F448
:100A2000807101600095002259462046049B01F028
:100A300045F8002856D1216809F0FE000861FFF74B
:100A4000F7FE2168054648694969C0F34000C1F3D3
:100A500080214FF0A00A0FE0FFF7EAFE411B049847
:100A6000814200D808B984F83DA0216848694969E5
:100A7000C0F34000C1F3802194F83D20A02A02D0A9
:100A800008B90029E8D084F83D7020684169C9435D
:100A9000890717D4016841F4007101602068416939
:100AA00080691923012216492046009501F006F8B5
:100AB000C0B984F83D7084F83C60002005B0BDE802
:100AC000F08F1BE0016841F40071016021686FF450
:100AD000806048611923012209492046009500F0F1
:100AE000EDFF08B10120E9E7039808F1010880450E
:100AF00093D384F83D7084F83C60F3E70220DDE78F
:100B0000020010000000FFFF2DE9F84F1F4690463D
:100B10008A460446DDF82890FFF78AFE054694F8D9
:100B20003D0020287FD1192301224049204600950D
:100B300000F0C4FF002876D194F83C00012872D060
:100B4000012084F83C0020680168C90703D10168CE
:100B500041F0010101602068016821F40061016039
:100B6000212084F83D00102084F83E0000262664F1
:100B7000C4F824806785608D20852D48E0622B466F
:100B80004A465146204600F02FFF90B9206841693F
:100B90008069009036E02A464946204601F00DF86B
:100BA00050B1206C042804D12068016841F4007120
:100BB00001600120BDE8F88F606A21680078086153
:100BC000606A401C6062618D491E6185218D491EED
:100BD00089B2218522685369DB435B070BD451B18D
:100BE00000781061606A401C6062608D401E608504
:100BF000208D401E20852A464946204600F038FFB9
:100C00000028CED1208D0028C5D154F83D0B0168B5
:100C100041F400710160202004F81E09E677667730
:100C20000020C7E7FFE70220C4E700000200100031
:100C30000000FFFF10B586B0044614216846FFF798
:100C400009FB13492068884220D11248016841F00D
:100C5000020101600068694600F002000590C020B2
:100C600000901220019001200290032003900420A4
:100C700004900948FFF7FAFC06481030016841F477
:100C800000110160006800F40010059006B010BD6E
:100C9000005400403038024000040240024881689D
:100CA00002781144816070473C0000200B4810B569
:100CB000016841F400710160016841F480610160E4
:100CC000016841F480710160032000F06FF800209A
:100CD00000F006F800F024F8002010BD003C0240AF
:100CE00070B50D4D04464FF47A712878B1FBF0F0E1
:100CF0000A490968B1FBF0F000F0FDFA48B9102C80
:100D000007D200222146501E00F030F800206C600F
:100D100070BD012070BD00003C0000204800002094
:100D20000A4808B5016841F480410160006800F498
:100D3000804000900548001F016841F0805101602B
:100D4000006800F08050009008BD00004438024068
:100D5000002809DB00F01F020121914040098000BA
:100D600000F1E020C0F8001170470000F0B40E4B15
:100D70001B680C46C3F30223C3F10705042D00D9F9
:100D80000425191D072901D2002300E0DB1E0126DE
:100D900006FA05F1491E214099409E40761E1640F4
:100DA0003143F0BC01F081BD0CED00E0064900F0DC
:100DB000070208684FF6FF03184040EA0220034A82
:100DC00010430860704700000CED00E00000FA05D9
:100DD0000648026822F004020260012903D040BFE5
:100DE00020BF20BF704730BF7047000010ED00E00B
:100DF0002DE9F0470E46050065D0DFF81481D8F8DC
:100E00000000F7B200F00F00B04207D288F800707F
:100E1000D8F8000000F00F00B04254D128683D4CD3
:100E2000810712D5400703D5206840F4E0502060C8
:100E30002878000703D5206840F4604020602068CF
:100E4000A96820F0F000084320602878C0072DD062
:100E5000304968680839012812D0022813D00328C5
:100E600011D00968890700292DDA216821F00301D2
:100E700001432160FFF7DCFC814641F2883A0EE035
:100E800009688903EFE709688901ECE7FFF7D0FCFF
:100E9000A0EB0901514502D90320BDE8F087206885
:100EA000696800F00C00B0EB810FEFD1D8F80010AA
:100EB000404601F00F01B14207D90770006800F009
:100EC0000F00B04201D00120E7E72878400705D5A0
:100ED0002068E96820F4E050084320602878000783
:100EE00006D52068296920F4604040EAC1002060EE
:100EF00000F03CF82168084AC1F30311515CC84076
:100F0000064908600020FFF7EBFE0020C5E700005F
:100F1000003C024008380240BC2C00084800002079
:100F20000148006870470000480000200448054957
:100F300000680968044AC1F38221515CC8407047C7
:100F40004800002008380240CC2C0008044805491D
:100F500000680968044AC1F34231515CC8407047D7
:100F60004800002008380240CC2C0008154810B575
:100F7000006810F00C02144813D04110042A0FD05E
:100F8000082A0ED10F4C241F2268236802F03F026A
:100F90005B0207D52068C0F38810A0FB010106E0C2
:100FA000084610BD2168C1F38811A1FB0001002390
:100FB000FFF706F92168C1F30141491C4900B0FB64
:100FC000F1F010BD083802400024F4002DE9F84F7C
:100FD000050076D02878DFF8F8B2BE4CC00749D0BB
:100FE000DBF800105846C1F38101012908D00068E0
:100FF000C0F3810002280AD1201D0068400206D5F6
:101000002068800336D568680028E2D032E068683E
:10101000B0F5803F10D0B0F5A02F206810D020F49C
:1010200080302060206820F4802020606868A0B1B3
:10103000FFF7FEFB06460CE0206840F48030F4E742
:1010400040F480202060F7E7FFF7F2FB801B642864
:1010500073D820688003F7D50CE0FFF7E9FB06465C
:1010600005E000BFFFF7E4FB801B6428F0D8206890
:101070008003F7D42878DFF8608280074FF00009FA
:101080003ED5DBF80010584611F00C0F09D000686F
:10109000C0F3810002280BD18D48001F0068400278
:1010A00006D42068800715D5E868012809D111E029
:1010B000E868B8B10120C8F80000FFF7B9FB0646A0
:1010C00005E002E1FFF7B4FB801B0228C0D82068CE
:1010D0008007F7D52068296920F0F80040EAC100B0
:1010E00020600DE0C8F80090FFF7A2FB064604E080
:1010F000FFF79EFB801B02281FD820688007F7D4CB
:101100002878000722D5724E744869696C3671B12F
:1011100001210160FFF78CFB074604E0FFF788FB25
:10112000C01B022809D830688007F7D50EE0C0F848
:101130000090FFF77DFB074605E083E0FFF778FBB3
:10114000C01B02287ED830688007F7D42878400773
:1011500068D5DFF87CA100270AF1380ADAF8000028
:10116000C0000BD4DAF8001041F08051CAF800102A
:10117000DAF80000012700F080500090584E3068E7
:10118000C00510D4306840F480703060FFF750FB29
:10119000009005E0FFF74CFB0099401A022851D857
:1011A0003068C005F6D54A4EA868683601280FD0C9
:1011B0000528306810D020F001003060306820F041
:1011C00004003060A868B8B1FFF732FB00900FE070
:1011D000306840F00100F4E740F004003060F7E7C9
:1011E000FFF726FB0099411A41F28830814264D80A
:1011F00030688007F4D50EE0FFF71AFB009007E097
:10120000FFF716FB0099411A41F28830814254D809
:1012100030688007F4D42FB1DAF8001021F0805143
:10122000CAF80010A869C0B3DBF80010C1F381014F
:1012300002294AD00228484607D0C8F86000FFF7C4
:10124000F7FA00E039E005463AE04746C8F86000A2
:10125000FFF7EEFA064604E0FFF7EAFA801B0228E1
:101260002BD820688001F7D4D5E907010843A96A83
:101270001C4A490802EB01416A6A41EA82110843AB
:1012800095F82C1040EA01611148001F016001200F
:101290003866FFF7CDFA054605E014E0FFF7C8FA17
:1012A000401B022809D820688001F7D50BE000BF59
:1012B000FFF7BEFA401B022802D90320BDE8F88FD1
:1012C00020688001F4D40020F8E70120F6E7000050
:1012D000083802400038024000004742800E474272
:1012E000007000400000FFFF4FF0E020016941F076
:1012F00002010161704710B5401EB0F1807F01D33B
:10130000012010BD4FF0E02460610F21601701F053
:10131000CCFA0020A06107202061002010BD4FF012
:10132000E020016921F002010161704770B590F879
:101330003C20012A19D0012400F83C4F02224270BF
:1013400050F83C3C5A689D6822F070060A6849686B
:10135000324325F0800529435A6050F83C2C9160B7
:10136000447000210170084670BD022070BD10B5A8
:10137000040003D094F83D0010B107E0012010BD37
:10138000002084F83C00204600F00CF8022084F88D
:101390003D00211D206800F031FF012084F83D0050
:1013A000002010BD10B586B0044614216846FEF733
:1013B00051FF194B2268002118489A4220D1026837
:1013C00042F001020260006800F00100059013483D
:1013D0001438026842F010020260006800F0100049
:1013E00005904FF4206000900220CDE9010101201A
:1013F000CDE9031069460A48FFF738F906B010BD79
:1014000008498A42FAD1016841F4802101600068EC
:1014100000F480200590F1E70000014044380240CC
:101420000010024000480140022180F83D10016890
:101430008A6802F00702062A03D00A6842F0010215
:101440000A60012180F83D10002070470168CA68D9
:1014500042F00102CA600068816801F007010629B4
:1014600003D0016841F001010160002070470000D5
:101470002DE9F041044690F83C000D4601283DD08E
:10148000012684F83C60022084F83D00AAB3042AB7
:1014900046D02068082A55D0D5E90027E968036AB4
:1014A00023F480530362D0F81CC0036A2CF4407C00
:1014B0004CEA07274FF6FF7C27F470470CEA01310E
:1014C00039434FF4204723F4204307EA02321A43FA
:1014D000C16102622068C16921F44061C161206874
:1014E000C169AA6841EA0221C0F81C1084F83D6075
:1014F000002084F83C00BDE8F08101E00220FAE71A
:10150000D5E90012EB68206801F00AF820688169CB
:1015100021F00C01816120688169AA6811430FE004
:10152000D5E90012EB68206801F04CF82068816969
:1015300021F44061816120688169AA6841EA022141
:101540008161D3E7D5E9002C2F7B016A21F48071FA
:101550000162C169036A21F0030141EA0C0121F033
:10156000F00C39074FF420674CEA116123F4206333
:1015700007EA02221A43C16102622068C16921F0B0
:101580000C01C1612068C169AA681143ACE710B5BC
:10159000040003D094F83D0010B107E0012010BD15
:1015A000002084F83C00204600F00CF8022084F86B
:1015B0003D00211D206800F021FE012084F83D003F
:1015C000002010BD704710B504460068012200F0ED
:1015D00079FE2068816801F00701062903D00168BF
:1015E00041F001010160002010BD000070B586B01F
:1015F000044614216846FEF72DFE24682148002188
:10160000214A02230325844210D1106840F01000C3
:101610001060106800F01000059020200090CDE9C7
:101620000131CDE903156946184812E0184E1948F2
:10163000B44212D1146844F002041460126802F03B
:101640000202059242150092CDE90131CDE9031560
:1016500015E0FFF70BF806B070BD0F4DAC42FAD1A4
:10166000146844F002041460126802F00202059249
:101670002A140092CDE901310391092104916946B0
:10168000E7E700000040014030380240001002400F
:1016900000480140000402400018004070B50446B4
:1016A00090F83C000D4601280DD0012684F83C60DE
:1016B000022084F83D0042B1042A18D0082A2AD01A
:1016C0000C2A4DD139E0022070BD206800F012FED6
:1016D0002068816941F0080181612068816921F0F9
:1016E00004018161206881692A69114311E0206841
:1016F00000F030FE2068816941F40061816120685A
:10170000816921F480618161206881692A6941EAE7
:101710000221816124E0206800F052FE2068C16946
:1017200041F00801C1612068C16921F00401C16173
:101730002068C1692A69114311E0206800F074FE35
:101740002068C16941F40061C1612068C16921F468
:101750008061C1612068C1692A6941EA0221C161D1
:1017600084F83D60002084F83C0070BD10B5040092
:1017700003D094F83D0010B107E0012010BD002017
:1017800084F83C00204600F00DF8022084F83D006B
:10179000211D206800F032FD012084F83D0000206A
:1017A00010BD000008B500680C49884208D10C48FB
:1017B000016841F480310160006800F480300BE082
:1017C0000849884209D10648001F016841F04001DC
:1017D0000160006800F04000009008BD004001403A
:1017E000443802400018004010B504460068012249
:1017F00000F068FD0B492068884202D00A498842FF
:1018000003D1416C41F4004141642068816801F0DA
:101810000701062903D0016841F0010101600020A1
:1018200010BD0000000001400004014002460020FD
:1018300041B1042909D008290AD00C2901D1106826
:10184000006C70471068406B70471068806B704781
:101850001068C06B704770B5044690F83C000128D2
:1018600012D0012584F83C50022084F83D00204627
:1018700000F002FE01004FF0000007D084F83D5058
:1018800084F83C00012070BD022070BD2168CA6848
:1018900022F04002CA602168CA6822F48042CA600D
:1018A00084F83D5084F83C00002070BD70B5040001
:1018B00004D094F83900002510B106E0012070BD75
:1018C00084F83850204600F023F8242084F83900AA
:1018D0002068C16821F40051C160204600F08EFEEE
:1018E0002068016921F4904101612068416921F07B
:1018F0002A0141612068C16841F40051C160E5637B
:10190000202084F8390084F83A00002070BD0000DF
:1019100010B586B0044614216846FEF79BFC1349B7
:101920002068884220D11248016841F400310160EA
:10193000006800F4003005900D481038016841F04F
:10194000080101600068694600F008000590602009
:1019500000900220019001200290032003900720B4
:1019600004900448FEF782FE06B010BD004400401B
:1019700040380240000C024090F83930202B18D13A
:10198000A9B1A2B190F83830012B12D00162828443
:10199000C2840021C163212280F8392080F83810E8
:1019A0000068C16841F08001C160002070470120DB
:1019B000704702207047FEE701684A69D24352052A
:1019C0000FD46FF480624A61002140F8301F20225A
:1019D00042738173026942F00402026101730120C3
:1019E0007047002070470000F8B50446C06A1E46E4
:1019F0000D461746082807D0012805D010F5803F6E
:101A000002D0206B122804D12068016841F4807153
:101A10000160134600224FF001112046009600F0AD
:101A20004DF808BB2069B0F5804F0ED00620216824
:101A300000EAD51040F0F000086133463A460B4901
:101A4000204600F06FF878B902E005F0FE0000E0F3
:101A5000E8B221680861054933463A46891F2046A5
:101A600000F060F8002800D00120F8BD0800010057
:101A700070B516460D4604460DE02046FFF79CFF64
:101A800008B1012070BD681C05D0FEF7D1FE801B97
:101A9000A84207D835B120684069C0434007ECD45C
:101AA000002070BD002044F8300F20216173A07326
:101AB000216941F0200121612073E2E72DE9F0471F
:101AC0001E4690460D460446C1F30747DDF82090B8
:101AD00008E0701C06D0FEF7ABFEA0EB0900B04298
:101AE0000FD876B12068012F18D0806925EA000050
:101AF0000004000C14D000214145EAD00020BDE8CC
:101B0000F087002044F8300F20216173A073216911
:101B100041F02001216120730120F0E74069E5E7F1
:101B20000121E9E72DE9F0479A4691460E46044621
:101B300000254FF02008C1F3074725E020684069E1
:101B4000C043400514D42068016841F4007101606D
:101B500021686FF480604861256384F83D8084F8D3
:101B60003E50206C40F00400206484F83C501FE09C
:101B7000B9F1FF3F08D0FEF75BFEA0EB0A01494533
:101B80000CD8B9F1000F09D02068012F13D080695B
:101B900026EA00000004000C0BD0CFE744F8305FC9
:101BA00084F80D80A573206940F020002061257322
:101BB0000120BDE8F0874069EAE770B516460D469A
:101BC00004460DE02046FFF7F7FE08B1012070BD86
:101BD000681C05D0FEF72CFE801BA84207D835B143
:101BE00020684069C0430006ECD4002070BD00208E
:101BF00044F8300F20216173A073216941F0200166
:101C000021612073E2E700000449082801D0002880
:101C100003D1C871202000F075B870470000002083
:101C200010B5012000F048F80A20FEF77FFB0348BA
:101C30000021C1700121817010BD00000000002052
:101C400010B5012000F038F84FF47A70FEF76EFB03
:101C5000022000F031F80520FEF768FB282000F094
:101C60002BF80520FEF762FB0C2000F025F805207C
:101C7000FEF75CFB802000F01FF8BDE810404FF439
:101C8000FA70FEF753BB0000094A9070421E012A09
:101C90000CD84A1E0F2A09D8064A02EB0010084445
:101CA00010F8110C40F0800000F006B870470000FA
:101CB000000000209C2C000838B5104C627800EA27
:101CC000020102EA0010E27911431043617104F14C
:101CD0001002A07141F004031370517040F0040130
:101CE0009170D07000F020FEC8200090042304F111
:101CF000100221780248FEF707FF38BD00000020DF
:101D0000DC01002038B5124C627800EA020102EAD8
:101D10000010E27911436171104341F0050304F1B1
:101D20001002A071137041F00101517040F00501E3
:101D3000917040F00100D07000F0F6FDC8200090D6
:101D4000042304F1100221780248FEF7DDFE38BDBD
:101D500000000020DC01002070B53220FEF7E6FA1A
:101D600000F0E2FD054D4FF47A74234603222978F2
:101D70000348FEF71DFE0028F7D170BD00000020CB
:101D8000DC0100202DE9F04F87B014216846FEF7F2
:101D900061FA48480024016841F0100101600168BF
:101DA00001F010010591016841F004010160016832
:101DB00001F004010591016841F0800101600168B2
:101DC00001F080010591016841F0010101600168A5
:101DD00001F001010591016841F002010160016813
:101DE00001F002010591016841F0080101600068FD
:101DF000DFF8C49000F0080005900022402148461A
:101E0000FEF711FDDFF8B4A04FF400560022314672
:101E10005046FEF708FDDFF8A8B042F20C4700225A
:101E200039465846FEF7FFFC4FF4764800224146FB
:101E30002448FEF7F8FC402000900125CDE901542C
:101E4000694648460394FEF711FC0096CDE901541B
:101E5000694650460394FEF709FC1B480095CDE9FE
:101E6000010469465846FEF701FC0220CDE9000452
:101E7000694658460294FEF7F9FB0097CDE90154F4
:101E8000694658460394FEF7F1FBCDF80080CDE992
:101E9000015469460B480394FEF7E8FB0022114603
:101EA0000620FEF763FF0620FEF752FF07B0BDE8ED
:101EB000F08F00003038024000100240000802405D
:101EC00000000240000C0240000011100D4810B547
:101ED0000B4901600C49416000214FF48042816050
:101EE000C0E9031241618161C1610162FEF7A6FC94
:101EF000002803D0BDE81040FEF716BA10BD000060
:101F00000054004044020020A086010010B588B0B3
:101F10001C216846FEF79EF915481449002401600B
:101F2000C721C0E9011449F63F41C0E903148461A7
:101F3000FFF71DFA08B1FEF7F7F90D48FFF716FC99
:101F400008B1FEF7F1F96020CDE900040294002207
:101F5000694607480494FFF7A1FB08B1FEF7E4F9CE
:101F60000348FFF743FB08B010BD000000480140E4
:101F70001803002010B588B01C216846FEF76AF9E6
:101F8000124811490024C0E900144FF6FF71C0E95E
:101F9000024104618461FFF7E9FB08B1FEF7C4F96F
:101FA000602000904FF47A70CDE901040022694668
:101FB00006480494FFF772FB08B1FEF7B5F9034831
:101FC000FFF714FB08B010BD0018004058030020B4
:101FD00030B58BB0142104A8FEF73CF90024274843
:101FE0000A94099400940194029423490394016093
:101FF0004F21C0E901144FF6FF71C0E90314446199
:102000008461FFF7B4F908B1FEF78EF91B48FFF7BA
:10201000BEFA08B1FEF788F90420049060200A2572
:102020000894CDE9050504A91448FFF714FC08B18C
:10203000FEF77AF9099409A910480A94FFF776F98E
:1020400008B1FEF771F901200095CDE901040022E5
:1020500069460A480394FFF70BFA08B1FEF764F9E2
:10206000042269460548FFF703FA002801D0FEF76D
:102070005BF90BB030BD0000000001409802002069
:1020800010B588B01C216846FEF7E4F812481149E3
:102090000024C0E900144FF6FF71C0E90241046159
:1020A0008461FFF763FB08B1FEF73EF96020009002
:1020B0004FF47A70CDE90104002269460648049481
:1020C000FFF7ECFA08B1FEF72FF90348FFF78EFA95
:1020D00008B010BD00400140D80200200C4810B5E7
:1020E0000A4901604FF4E1314160002181600C2216
:1020F000C160C0E904128161C161FFF7D7FB00280C
:1021000003D0BDE81040FEF70FB910BD00440040F9
:1021100098030020FEE7704770477047FEF7BEBD8A
:1021200030B593B030216846FEF794F814210CA81E
:10213000FEF790F81A480025016841F080510160CF
:10214000006800F0805011901648016841F4804109
:1021500001600068022400F480401190012000908A
:10216000000401908001CDE90640082008904FF45A
:10217000A870CDE9090404200B906846FEF726FFFD
:102180000CA90F2081E831004FF4A0500F90E0021D
:10219000109005210CA8FEF72BFE13B030BD0000F7
:1021A00040380240007000401048016841F470015E
:1021B00001600F48016841F0010101600C4A0021F3
:1021C0000832116002680B4B1A400260031D0A4A74
:1021D0001A60026822F48022026005480C30016017
:1021E00002495806803908607047000088ED00E019
:1021F00000380240FFFFF6FE10300024F0B5026800
:10220000254C264D264E274F274B4FF0804CA042A1
:1022100009D0604507D0A84205D0B04203D0B842EB
:1022200001D0984204D122F0700E4A6842EA0E02B0
:10223000A0421BD0604519D0A84217D0B04215D09B
:10224000B84213D0984211D0184DA8420ED0184D64
:10225000A8420BD0174DA84208D0174DA84205D070
:10226000164DA84202D0164DA84203D122F4407563
:10227000CA682A434D6922F080022A4302608A68B4
:10228000C2620A688262A04201D0984201D1096903
:10229000016301214161F0BD0000014000040040E4
:1022A00000080040000C00400004014000400140D4
:1022B000004401400048014000180040001C00405C
:1022C0000020004010B501F01F030121046A99406D
:1022D0008C430462016A9A401143016210BD10B53B
:1022E000846842EA032224F47F440A432243826042
:1022F00010BD0000F0B5026A22F001020262036A1A
:1023000042688469124E24F073050C682C4323F054
:1023100002058B682B430D4DA84201D0B04205D178
:1023200023F00807CB683B4323F00403A84201D005
:10233000B04205D14D6922F4407215438A692A439F
:1023400042608461496841630362F0BD000001405E
:1023500000040140F0B5026A22F010020262026A33
:10236000436884690D6824F4E64444EA05248D68D2
:1023700022F0200242EA05120F4D104EA84201D071
:10238000B04206D1CF6822F0800242EA071222F062
:102390004002A84201D0B04207D14D6923F4406306
:1023A00043EA85038D6943EA850343608461496894
:1023B00081630262F0BD00000000014000040140A2
:1023C000F0B5026A22F480720262026A4368C4694C
:1023D00022F4007224F073050C68124E2C438D68B1
:1023E00042EA05220E4DA84201D0B04206D1CF6884
:1023F00022F4006242EA072222F48062A84201D05D
:10240000B04207D14D6923F4405343EA05138D6967
:1024100043EA05134360C4614968C1630262F0BDC9
:10242000000001400004014030B5026A22F48052ED
:102430000262046A4268C3690D6823F4E64343EA12
:1024400005238D6824F4005444EA0534084DA8425D
:1024500002D0084DA84204D14D6922F4804242EADC
:1024600085124260C36149680164046230BD0000A6
:10247000000001400004014010B503689A6822F092
:1024800070044A68224322F007040A6822439A60D3
:102490004A6812F00F0F30D11211082A2DD2DFE84E
:1024A00002F02C2C2C2C0B2127040B69D1E90221E2
:1024B0000068FFF714FF20E00A68052A10D00268C0
:1024C000136A146A24F001041462026894690969A9
:1024D00024F0F00444EA01119161006803620CE009
:1024E000012010BD0A698968006800F008F804E05E
:1024F0000A698968006800F053F8002010BD10B523
:10250000036A046A24F001040462846924F0F0047C
:1025100044EA021423F00A020A438461026210BDF5
:1025200070B5046A24F0010404628469056A154EDA
:10253000B04214D0B0F1804F11D0134EB0420ED043
:10254000124EB0420BD0124EB04208D0114EB042E3
:1025500005D0114EB04202D0104EB04203D124F04B
:102560000304144301E044F001041A0724F0F004CA
:1025700044EA126225F00A0301F00A01194382615C
:10258000016270BD000001400004004000080040EE
:10259000000C0040000401400040014000180040D1
:1025A00010B5036A23F0100303628369046A23F4FD
:1025B000704343EA023224F0A00343EA011182612E
:1025C000016210BD30B5046A24F01004046284690D
:1025D000056A24F4407444EA022222F470444FF65F
:1025E000FF7202EA03322243A02425F0A00304EA8A
:1025F000011119438261016230BD00002DE9F041F3
:10260000044600680169E26821F440511143016108
:102610002169A068E269084361691143226808439F
:10262000D16849F20C6399430143D1602068416944
:10263000A26921F4407111434161E2696425B2F558
:10264000004F9748974922684FF032083FD08A429E
:1026500001D082427CD1FEF779FC00EBC00101EB96
:10266000001061688900B0FBF1F6FEF76FFC00EB2B
:10267000C00101EB001061688900B0FBF1F0B0FB14
:10268000F5F06FF01801484306EB800108EB0110EC
:10269000B0FBF5F000F0F006FEF758FC00EBC001CF
:1026A00001EB001061688900B0FBF1F0B0FBF5F0C0
:1026B00006EB0016FEF74AFC00EBC00101EB001030
:1026C00061688900B0FBF1F7FEF740FCD2E08A4276
:1026D00001D082423DD1FEF739FC00EBC00101EB95
:1026E000001061684900B0FBF1F0B0FBF5F00601A5
:1026F000FEF72CFC00EBC00101EB00106168490003
:10270000B0FBF1F7FEF722FC00EBC00101EB00107B
:1027100061684900B0FBF1F0B0FBF5F06FF0180113
:10272000484307EB800108EBC100B0FBF5F000F077
:10273000F80006EB4006FEF709FC00EBC00101EBD8
:10274000001061684900B0FBF1F7FEF7FFFB3CE0C9
:1027500055E0FEF7EBFB00EBC00101EB00106168F8
:102760004900B0FBF1F0B0FBF5F00601FEF7DEFB2F
:1027700000EBC00101EB001061684900B0FBF1F70C
:10278000FEF7D4FB00EBC00101EB001061684900CB
:10279000B0FBF1F0B0FBF5F06FF01801484307EB28
:1027A000800108EBC100B0FBF5F000F0F80006EB8B
:1027B0004006FEF7BBFB00EBC00101EB00106168B7
:1027C0004900B0FBF1F7FEF7B1FB00EBC00101EBF4
:1027D000001061684900B0FBF1F0B0FBF5F06FF05C
:1027E0001801484307EB800108EBC100B0FBF5F08E
:1027F00000F00700216830448860BDE8F081FEF7F2
:1028000095FB00EBC00101EB001061688900B0FB93
:10281000F1F6FEF78BFB00EBC00101EB00106168E5
:102820008900B0FBF1F0B0FBF5F06FF01801484300
:1028300006EB800108EB0110B0FBF5F000F0F006AC
:10284000FEF774FB00EBC00101EB0010616889002A
:10285000B0FBF1F0B0FBF5F006EB0016FEF766FBFF
:1028600000EBC00101EB001061688900B0FBF1F7DB
:10287000FEF75CFB00EBC00101EB00106168890012
:10288000B0FBF1F0B0FBF5F06FF01801484307EB37
:10289000800108EB0110B0FBF5F000F00F00A9E794
:1028A0000014014000100140FEE70907090E00284E
:1028B00004DB00F1E02080F80014704700F00F0006
:1028C00000F1E02080F8141D704702E008C8121FD4
:1028D00008C1002AFAD170477047002001E001C109
:1028E000121F002AFBD1704710B52820FDF702FD0A
:1028F0000B4C02212046FDF791FF50B95020FDF707
:10290000F9FC02212046FDF789FF10B1054901209D
:10291000087002212046FDF781FF0028F9D110BD83
:10292000000002401400002070B52A22124913480A
:10293000FDF777FC104C608D104D6885E06AE86209
:10294000206B2863092204F1340105F13400FDF7FE
:1029500068FC94F83D0085F83D0094F83E0085F849
:102960003E00206C2864606C6864A06CA864E06C15
:10297000E864206D286570BD44020020DC01002061
:102980001CB500F0F00141F00C028DF8042041F07C
:10299000080100018DF8051040F00C018DF80610BB
:1029A00040F008008DF807006420009003480423DD
:1029B00001AA01780248FEF7A7F81CBD000000201C
:1029C000440200201CB500F0F00141F00D028DF82A
:1029D000042041F0090100018DF8051040F00D01BF
:1029E0008DF8061040F009008DF807006420009073
:1029F0000348042301AA01780248FEF785F81CBDAC
:102A0000000000204402002010B5044602E0641CCF
:102A1000FFF7D8FF20780028F9D110BD08B5FEF7E0
:102A200045F9FFF77DFBFFF7ADF9FFF729FBFFF74E
:102A3000A1FAFFF76BFAFFF749FAFFF74FFBFFF731
:102A4000C7FA63480068C16841F04001C160FFF700
:102A500083F9FFF7F5F80820FFF7D6F801210846BB
:102A6000FFF712F95B48FEF7DFFC5B48FEF7EEFC70
:102A70005A48FEF7EBFC00215648FEF7B5FE002150
:102A80005548FEF7B1FE00215448FEF7ADFE002187
:102A90005348FEF798FD04215148FEF794FD514933
:102AA00003200860504C4FF47A7500BFFDF7C0FE5C
:102AB000E169401A64281ED3FDF7BAFEE0610021E7
:102AC0004748FEF7B3FE606104214548FEF7AEFEBD
:102AD000A06194ED050AB8EE400ADFED440A80EEED
:102AE000201A00EE100AB8EE400A84ED081A80EEB3
:102AF000201A84ED091AFDF7EBFBFFF7F5FE00F055
:102B000081F8607000F07EF8A07000F07BF8E07053
:102B100000F078F8207100F075F8E0806178A27814
:102B200023790A44E1780A441A448242BED10A2633
:102B3000B1FBF6F030300090FFF772F81420FDF78B
:102B4000F5FB8020FFF71CFF29A0FFF75DFFE07871
:102B5000B0FBF6F03030FFF735FFE078B0FBF6F170
:102B600006FB11003030FFF72DFF23A0FFF74CFFCD
:102B7000C020FFF705FF21A0FFF746FF6078B0FBFC
:102B8000F6F03030FFF71EFF6078B0FBF6F106FB81
:102B900011003030FFF716FF2520FFF713FF2846FE
:102BA000FDF7C4FB082269460948FEF7E5FE0098D8
:102BB00002287FF77BAF2846FDF7B8FBFEF7AFFB97
:102BC00001210846FEF704F9FEF78EFB6EE70000D0
:102BD0009803002018030020D8020020580300208A
:102BE0009802002034480140140000200000684290
:102BF000544D503A200000002043000048554D3A03
:102C0000200000002DE9F0410024144F012602218C
:102C10003846FDF703FE0028F9D02820FDF76AFBAF
:102C200002213846FDF7FAFD90B1C4F1070106FA1A
:102C300001F02843C5B202213846FDF7EFFD002818
:102C4000F9D1641CE4B2082CE1D32846BDE8F08138
:102C5000C4F1070006FA00F08543ECE700000240EB
:102C60000448022101600021416081600146024860
:102C7000FDF7FCBC300200200000024005480221A4
:102C80000160012141600021C16001460248FDF759
:102C9000EDBC0000300200200000024000010203F1
:102CA0000405060708090A0B0C0D0E0F40414243AC
:102CB0004445464748494A4B4C4D4E4F00000000A2
:102CC00000000000010203040607080900000000DC
:102CD00001020304F42C0008000000204C00000056
:102CE000CA280008402D00084C0000208C07000076
:102CF000DA2800084EF0010000000000101010104B
:102D000000000000000000000000000000000000C3
:102D10000000000050C3000060EA00000000000056
:102D200000000000000000000000000000000000A3
:102D30000100000010000000000000000024F4006A
:040000050800018965
:00000001FF
